:020000040800F2
:10000000485B0020ED010008D5490008F5290008EB
:10001000C1490008E1220008F1600008000000006A
:100020000000000000000000000000008D4D0008EE
:10003000D9230008000000001D4B0008014E0008F5
:10004000070200080702000807020008070200086C
:10005000070200080702000807020008070200085C
:10006000070200080702000807020008D123000861
:10007000D52300080702000807020008070200084D
:100080000702000807020008CD1400080702000854
:10009000070200080702000807020008070200081C
:1000A000070200083D4F0008070200080702000889
:1000B000894F00080702000807020008070200082D
:1000C00007020008070200080702000807020008EC
:1000D0000702000881520008FD5300087955000806
:1000E0003124000807020008070200080702000880
:1000F00007020008070200080702000807020008BC
:1001000007020008070200080702000807020008AB
:10011000B95000089D5100080702000807020008B6
:10012000070200080702000807020008070200088B
:10013000070200080702000807020008070200087B
:10014000070200080702000807020008000000007C
:10015000000000000000000000000000000000009F
:10016000000000000000000000000000070200087E
:10017000070200080702000807020008070200083B
:10018000070200080702000807020008070200082B
:10019000070200080000000007020008070200082C
:1001A0000702000807020008070200088D47000840
:1001B00007020008070200080702000807020008FB
:1001C00007020008070200080702000807020008EB
:1001D0000702000807020008DFF80CD000F0ECFE70
:1001E00000480047A1800008485B0020064880477F
:1001F00006480047FEE7FEE7FEE7FEE7FEE7FEE70C
:10020000FEE7FEE7FEE7FEE7294F0008D9010008F8
:100210002DE9F05F0546002092469B46884606463B
:10022000814640241BE0284641464746224600F0CE
:10023000A2F953465A46C01A914110D311461846A6
:10024000224600F089F92D1A67EB01084F46224635
:100250000120002100F080F917EB00094E41201E1B
:10026000A4F10104DFDC484631462A464346BDE896
:10027000F09F40EA01039B0703D009E008C9121F61
:1002800008C0042AFAD203E011F8013B00F8013B50
:10029000521EF9D27047D2B201E000F8012B491E7C
:1002A000FBD270470022F6E710B513460A46044613
:1002B0001946FFF7F0FF204610BD30B505462A4627
:1002C0000B4612F8010B13F8014B08B1A042F8D00D
:1002D0001CB1002802D06D1CF1E7284630BD10B5D6
:1002E000044604E00B7800F8013B03B1491C521EA0
:1002F000F8D2204610BDCAB2401E10F8011F8A4233
:1003000002D00029F9D100207047421C10F8011BCF
:100310000029FBD1801A70470FB400B58DB010A929
:1003200009900B9000914FF0FF300A9000200C9044
:1003300005480690054807906A4609A80F9900F0FD
:10034000A1FC0DB05DF814FBA10C0008BF0C000867
:1003500070B5064609F090F8046805460A220021A7
:10036000304600F0BDFC2C6070BD2DE9FE4F81EAE7
:10037000030404F0004421F0004100944FF0000B0E
:1003800023F0004350EA01045ED052EA03045BD03C
:10039000C3F30A54C1F30A552C44A4F2F334019474
:1003A000A0FB0254C1F3130141F48011C3F3130302
:1003B00043F4801301FB024400FB034E840A970AB6
:1003C00044EA815447EA8357A4FB076802958D0AE3
:1003D00005FB07854FEA932C04FB0C542705029D6F
:1003E0004FEA065847EA1637B5EB08056EEB070CDF
:1003F000870E920E47EA811742EA8312A7FB020199
:10040000B6EB0B0164EB00042B0D43EA0C335E18D2
:1004100044EB1C50DA465146E7FB0201C5F31304D6
:100420004FEA0B3343EA14534FEA0432019C43EA88
:100430000603A4F10C040294009CCDE900B400F082
:1004400096FC03B0BDE8F08F00200146F9E72DE9E6
:10045000F04D81EA030404F0004B21F000451446FE
:100460004FF0000A23F0004150EA050220D054EA80
:1004700001021DD0C5F30A570246C5F31303C1F3A9
:100480001300C1F30A5640F4801543F48013A7EB20
:100490000608101BD64608F2FD3873EB050002D3A0
:1004A00008F1010801E092185B41B8F1000F03DA8E
:1004B00000200146BDE8F08D00204FF48011064673
:1004C00084460EE0171B73EB050705D3121B63EB85
:1004D000050306434CEA010C49084FEA3000921824
:1004E0005B4150EA0107EDD152EA030012D082EAE3
:1004F000040083EA0501084305D0101BAB4106D276
:100500000122002306E000224FF0004302E06FF0DA
:10051000010253101AEB06004CEB085110EB0A00D5
:1005200041EB0B01BDE8F04D00F012BC30B50B46BD
:10053000014600202022012409E021FA02F59D4213
:1005400005D303FA02F5491B04FA02F52844151EE7
:10055000A2F10102F1DC30BD202A04DB203A00FACE
:1005600002F1002070479140C2F1200320FA03F30A
:10057000194390407047202A04DB203A21FA02F008
:100580000021704721FA02F3D040C2F120029140CD
:100590000843194670472DE9FF4F1C4681B00021E2
:1005A000D4E9016791464FF0FF358A468846A16934
:1005B0006D1C02988847216A834688470028F6D137
:1005C000BBF1FF3F0CD026F4C066002F1ADD700689
:1005D00015D5BBF12B0F0AD0BBF12D0F0FD104E0C5
:1005E0004FF0FF3005B0BDE8F08F46F48066A1699A
:1005F0006D1C029888477F1E8346002F02DDBBF1E9
:10060000300F03D0B9F1000F2AD025E0A1696D1C8D
:1006100046F400767F1E029888478346002F05DD4A
:10062000BBF1780F06D0BBF1580F03D0B9F1000F22
:1006300010D011E0B9F1000F02D0B9F1100F0BD1B9
:10064000A1696D1C26F400767F1E029888478346B8
:10065000102000E0082081464FEAE970009017E082
:100660000A20F8E74346AAFB092803FB0980DDF8C6
:1006700000C07F1E0AFB0C0112EB0B0A41EBEB786A
:10068000A16946F4007605F1010502988847834682
:10069000002F06DD4946584600F0C5FC5FEA000B16
:1006A000E0D5E16902988847B00502D46FF00100F7
:1006B00098E7F00718D1700610D57005514605D59A
:1006C0000023D1EB030163EB080200E042462068FF
:1006D000031D23600068C0E9001205E02068011DC9
:1006E00021600068C0E900A828467BE72DE9FF5F8C
:1006F0001D464FF0FF3BD5E9014691465F464FF05E
:100700000008A9697F1C01988847296A82468847A2
:100710000028F6D1BAF1FF3F0CD024F4C064002EBB
:1007200019DD600614D5BAF12B0F09D0BAF12D0FDF
:100730000ED103E0584604B0BDE8F09F44F4806455
:10074000A9697F1C01988847761E8246002E02DD2B
:10075000BAF1300F03D0B9F1000F26D032E0A96909
:10076000761E44F400747F1C019888478246002E50
:1007700005DDBAF1780F06D0BAF1580F03D0B9F100
:10078000000F10D01EE0B9F1000F02D0B9F1100F28
:1007900018D1A969761E24F400747F1C019888473B
:1007A0008246102002E0082000E00A20814609E08D
:1007B00008FB0908A969761E44F400747F1C01989F
:1007C00088478246002E05DD4946504600F02BFC46
:1007D0000028EDDAE96901988847A00502D46FF096
:1007E0000100A8E7E00725D1600613D5600502D512
:1007F000C8F1000000E0404629680A1D2A60096827
:10080000220501D5087015E0220701D5088011E006
:1008100008600FE02868011D29600068210502D5E5
:1008200080F8008006E0210702D5A0F8008001E0F2
:10083000C0F8008038467EE72DE9FF5FD2E901A7C6
:100840004FF00008916999461446DDF838B04646E5
:1008500001988847054659EA0B0005D009E0A169CF
:10086000761C019888470546216A28468847002853
:10087000F5D1681C03D05FEACA7005D015E04FF0CF
:10088000FF3004B0BDE8F09F2068011D2160D0F862
:1008900000800AE05FEACA7001D108F8015BA16933
:1008A000761C7F1E019888470546002F1ADD681CBC
:1008B00018D0B9F1000F0DD0E81705EBD060421148
:1008C00020F01F0059F822102A1A012090400142FE
:1008D000E0D107E0BBF1000FDCD1216A2846884750
:1008E0000028D7D0E16901988847BBF1000F07D1F4
:1008F000002E05DD5FEACA7002D1002188F80010E1
:10090000A068B84203DDBBF1000F03D017B16FF050
:100910000100B6E73046B4E72DE9FF4F087883B011
:100920009946FF2805D0491C2D2804D0002400201A
:1009300008E000200BE00124F9E700EB800003EB66
:100940004000491C0B78FF2BF7D104B14042002333
:100950000293147819461D462D2C01D02B2C04D15E
:10096000521C2D2C13D000240294AA461478FF2C7C
:100970000FD00A25A3FB057801FB05814FF0000C81
:1009800003FB0C11521CE3194AEB0101EEE70124B1
:10099000EAE7814453EA010002D019F5C87F06DA7C
:1009A00003980021C0E9001107B0BDE8F08F0025D1
:1009B000AE4E2F46DFF8B882184600F028FDCDE98C
:1009C0000001B9F1000002DAC9F1000400E00446B8
:1009D0000023A74A1AEB030B42EB045A12E0E0078C
:1009E00007D02A46334638464146FFF7BEFC074645
:1009F00088462A46334610461946FFF7B6FC054698
:100A00000E466410002CEAD1DDE90001B9F1000FB7
:100A10005A46534606DAFFF71AFD3A464346FFF7B1
:100A200016FD05E0FFF7A1FC3A464346FFF79DFCA3
:100A3000029A0AB181F00041039AC2E90001B3E7CA
:100A40002DE9FF4F1F468DB0D7E901464FF0FF3823
:100A50002E2045464FF000090B90B9696D1C0E9889
:100A60008847396A824688470028F6D1BAF1FF3FA5
:100A70000AD024F4D064002E11DDBAF12B0F08D077
:100A8000BAF12D0F0BD102E0404611B08DE744F4CE
:100A90008064B9696D1C0E9888478246761E694647
:100AA000600501D52D2000E02B208DF8000001F11C
:100AB000010B0DF1200809E0B9696D1C0E988847FB
:100AC00082460F9844F40074761E0560002E02DD05
:100AD000BAF1300FF0D00B998A453ED144F0800432
:100AE00006E00F99681CA9F1010944F4007408603C
:100AF000B9696D1C761E0E98884782463028F0D062
:100B00002BE00B998A4505D1200603D444F08004DC
:100B1000761E18E0504608F085FD08B30DF113026B
:100B2000761EAAF1300044F40074934506D20BF807
:100B3000010B200607D5A9F1010003E0200602D42D
:100B400009F101008146A00502D50F99681C0860D3
:100B5000B9696D1C0E9888478246002ED1DC53E09F
:100B6000002E51DDBAF1650F02D0BAF1450F4BD11D
:100B7000A00549D5B9696D1C24F44074761E0E9801
:100B800088478246002E0CDD2B2804D0BAF12D0FA9
:100B900007D144F48074B9696D1C0E988847824669
:100BA000761EE00501D52D2100E02B2108F8011B60
:100BB000CDF82C8021E00DF12901761E44F400745B
:100BC00088450CD2AAF1300010F0FF0088F8000030
:100BD00002D10B99884509D908F1010806E0E00522
:100BE00001D5244801E042F20F708146B9696D1CBD
:100BF0000E98884782460F980560002E04DD504607
:100C000008F010FD0028D6D1F9690E988847FF201A
:100C10008BF8000088F800000020069007904B46F3
:100C20006A4608A906A8FFF777FEA00502D46FF070
:100C300001002AE714F0240F0AD0E00714D1DDE9FF
:100C400006123868031D3B600068C0E900120BE023
:100C5000DDE9060100F0E7FB0146E00704D1386852
:100C6000021D3A600068016028460EE7000014404B
:100C70000000F03FF1D8FFFF0268114413780160D3
:100C800018467047D160044951610449116200213E
:100C90001161114600F0D6B9790C00081510000852
:100CA000426842B1016811F8013B23B1521EC0E90C
:100CB0000012184670470121C160881E70474268C3
:100CC0005AB1C368016843B983688B4205D0491E95
:100CD000521CC0E90012002070474FF0FF307047EF
:100CE0002DE9F04791460F4680460446002614F849
:100CF000015B2DB100F08AF90068405DC007F6D1B4
:100D00002B2D02D02D2D18D0641E4A463946204680
:100D100000F02EFB27B13968A14201D1C7F800804D
:100D200071054FF002040BD54042002803DD08F0A6
:100D3000A3FB0460A007BDE8F08746F48066E4E703
:100D40000028F8DA08F098FB04606FF00040F2E742
:100D500010B5141E73F1000408DA401C41F10001C3
:100D600092185B411A4301D120F0010010BD2DE91A
:100D7000F04D92469B4611B1B1FA81F202E0B0FA11
:100D800080F220329046FFF7E7FB04460F4640EA28
:100D90000A0041EA0B0153465A46084313D0114654
:100DA00053EA010019D0C8F140025046FFF7E3FBB7
:100DB00005460E46504659464246FFF7CDFB0843CE
:100DC00005D0012004E020463946BDE8F08D002022
:100DD000054346EAE0762C4337430A986305E40A64
:100DE000A0EB08000022FD0A44EA47540A3002D56D
:100DF00000200146E9E7010510196941DDE90845D0
:100E000000196941BDE8F04DA2E72DE9FE4F80468B
:100E100081EA0300C00F0C46009021F0004123F04E
:100E20000045B8EB0200A94105D240462146904654
:100E30001C460B46024623F00040104347D0270DC6
:100E4000C7F30A00C3F30A510290401A01904028E8
:100E50006BDAC3F3130040F4801B0098924620B174
:100E60000023D2EB030A63EB0B0B01985946C0F148
:100E700040025046FFF770FB06460D465046594665
:100E8000019A00F0B1F810EB08006141002487EAF4
:100E9000115284EAE7731A4340D0009A62B3019A70
:100EA000012A4FEA075215DC001B61EB02014FF0EB
:100EB000004202EA0752CDE90042001C41F58011D0
:100EC00032462B46FFF753FF03B0BDE8F08F404694
:100ED0002146F9E7001B61EB0201001C41F580137C
:100EE00000185B412018A2F5001747EB030140EA08
:100EF000D570B6196D4111E06D084FEA360645EA26
:100F0000C0754FEA0752001B61EB0201001C41F55E
:100F1000801149084FEA30000019514132462B46F2
:100F200003B0BDE8F04FFFF713BF00980122400067
:100F30000023D0EB020263EBE073009821464FEAF6
:100F4000E074B8EB000061EB0401E9E783F00043D3
:100F50005BE781F0004158E7C1F30A52C1F3130186
:100F600040F2FF3341F480119A4202DA0020014638
:100F7000704740F233439A42A2F2334202DC5242BB
:100F8000FFF7F9BAFFF7E8BA30B5041E71F10004B3
:100F900004DB4FF00044404264EB0101141E73F186
:100FA000000405DB1C464FF00043524263EB040390
:100FB000994208BF904230BD1CB5094800900948CD
:100FC00001900546009C06E0E06840F0010394E8CB
:100FD000070098471034AC42F6D3FFF701F9000040
:100FE0005CA800087CA80008202A06DBCB17203A62
:100FF00041FA02F043EAE07306E041FA02F3D0401E
:10100000C2F12002914008431946704700487047DA
:10101000C49E000810B50446FFF7F8FF0068005DA5
:1010200000F0010010BD3A2800D2303820F0200234
:10103000412A01D3A2F13700884201D34FF0FF309B
:10104000704700002DE9F34F8BB04FF0000801F11D
:101050000C000C464FF0010B46460DF1080A0190BA
:101060006269012101989047051E2DD0252D2CD0B5
:10107000216A8847C0B16269012101989047216ABD
:1010800088470028F7D1411E62690198904700E027
:10109000761CA1690B988847216A88470028F7D1F8
:1010A000E1690B988847DBE7A1690B9888470746F9
:1010B000A84201D1761CD3E7E1690B9888477F1CD1
:1010C00002D1B8F1000F6FD046E1002762693D46BA
:1010D0003946019890472A2804D162690121019874
:1010E00090470125DFF884926269012101989047B9
:1010F000A0F130010A290AD24F45E5DC07EB870150
:1011000000EB4107303FDFD445F01005ECE7E9067E
:1011100001D46FF000476C280AD04C2814D06828FE
:1011200015D06A280DD074281CD07A281AD01DE05A
:1011300062690121019890476C2802D045F00405AE
:1011400014E045F002050DE045F020050AE0626973
:10115000012101989047682802D045F0080505E074
:1011600045F400656269012101989047C4E901577F
:1011700065283DD019DC58287AD00CDC452837D0BA
:1011800004DC252826D0412831D131E046282FD053
:1011900047282CD12CE05B2877D0612828D0632801
:1011A0007CD0642823D15AE0D0E06F2848D008DCF6
:1011B00066281DD067281BD0692821D06E2816D13B
:1011C00027E0702845D0732868D0752847D0782844
:1011D0000DD14DE0A1690B988847054625283FF4BD
:1011E00069AFE1690B9888476D1C3FF46AAFB3E0C3
:1011F00023466A466FF001000B99FFF721FC9EE041
:1012000045F040006060A80723464FF0000236D446
:101210003EE0E8077FF447AF2068011D21600068C9
:10122000290501D506701BE7290701D5068017E7B8
:10123000A90703D5F117C0E9006111E706600FE7C0
:1012400045F040006060A80723464FF0080216D41E
:101250001EE040F60E0125EA0100606016E045F050
:1012600040006060A80723464FF00A0207D40FE051
:1012700045F040006060A80708D5234610226FF0B3
:1012800001000B99FFF787F959E007E02346102288
:101290006FF001000B99FFF729FA50E04FF00009B9
:1012A0004F464B46632802D05B2806D040E0E80654
:1012B00001D40120A06001273AE062690121019870
:1012C00090475E2805D14FF00109626949460198AF
:1012D0009047216939B900210A46534643F8212035
:1012E000491C0829FADBB0B3216969B9C11700EBC1
:1012F000D16253110AEB830122F01F02821A0120EE
:101300000B68904003430B6062690121019890478C
:101310005D28E8D1B9F1000F09D00020514651F8FD
:101320002020D24341F82020401C0828F7DB02ABE4
:10133000224600976FF001000B99FFF77DFA002815
:101340000CDA401C08D1BBF1000F05D04FF0FF3084
:101350000DB0BDE8F08FFFE74046F9E7E90701D19E
:1013600008F1010806444FF0000B79E6CCCCCC0C18
:101370002DE9F05F82460078002715468B460AF17A
:101380000104B946302801D09DB113E014F8010BD7
:101390000127782803D0582801D045B10AE00DB1C3
:1013A000102D07D10027102514F8010B02E00825A5
:1013B00000E00A250026B0460EE005FB080005FB0C
:1013C00006F1012701EB10461FFA80F8B6F5803FC1
:1013D00000D3B94614F8010B2946FFF724FE002874
:1013E000EBDABBF1000F05D00FB1641E00E05446EC
:1013F000CBF80040B9F1000F06D008F03DF802210B
:101400000160C81EBDE8F09F48EA0640FAE70EB545
:1014100040F2334202920022CDE900221346FFF748
:10142000A6FC03B000BD01F0004330B421F0004140
:1014300050EA010206D00A0DA2F56072C1F3130151
:10144000002A02DC30BC00207047440F44EAC1048B
:10145000C100E01830BC00EBC250AFF3008000299F
:10146000A8BF7047401C490008BF20F0010070472A
:1014700010B4B0FA80FC00FA0CF050EA010404BF8A
:1014800010BC704749B1CCF1200421FA04F411FAE0
:101490000CF118BF012121430843A3EB0C01CB1D24
:1014A0004FEA00614FEA102042BF002010BC704795
:1014B00000EBC35010440029A4BF10BC7047401C6F
:1014C000490008BF20F0010010BC704770470000C1
:1014D00080B5D4B049F6C86CC0F6000CDCF800004A
:1014E000DCF80410DCF80820DCF80C30DCF810C064
:1014F000CDF84CC15293519250914F9000200490DE
:101500004E908DF82D0140F27C41C2F2000139A8C5
:10151000C82207F0D7F801F07BF801F09BF907F03B
:1015200091FB049B6846036003204FF4E1311A46A7
:1015300004F094F8049838903790369035903490B1
:101540003390082001F09EFA07F07EF804984FF4DB
:10155000806133910121349135903690379040F677
:101560000040C4F6000033A901F056FB07F06CF808
:1015700049F6C470C0F6000049F6C771C0F6000114
:1015800000F09CFA04984AF2F451C0F6000148F6C3
:10159000EF5200F053FD48F66920C0F6000000F05D
:1015A0007FFC04983290319030902F902E902D90A7
:1015B0002C902B9043F27C01C2F200012BA84FF437
:1015C000006200F063FE04982A9003F0E1FB0498A7
:1015D000089007900690FFE740F24451C2F20001E4
:1015E00003204FF47A7204F093FB0590059860B1E4
:1015F000FFE7059A40F24451C2F2000139A807F012
:1016000091F800F0FFFF0690FFE700F0FBFF06995E
:10161000401A032815D3FFE739A807F0A1F80128DD
:101620000FDBFFE73998029039A8039007F098F88C
:1016300002990246002000F019FE039807F03AF8DC
:10164000FFE700F01BFCC7E781B08DF803009DF8B1
:10165000030001B07047000080B582B0182008F088
:10166000B9FB0190019868B1FFE7019807F0AAF86B
:101670000198083007F0A6F8019900200875019933
:101680000861FFE7019802B080BD000080B584B01A
:101690000290029850B1FFE70298083007F0A4F8D2
:1016A0000190019800900098039002E000200390C0
:1016B000FFE7039804B080BD80B582B0019000912F
:1016C000019848B1FFE7009830B1FFE70198083072
:1016D000009907F04BF8FFE702B080BD80B582B0FB
:1016E0000190019890B3FFE70198006900F042F97A
:1016F00001460091032827D80099DFE801F0020C89
:101700002021019801690120087400F07BFF0199F4
:101710000969C86019E000F075FF01990A699168CC
:10172000D268801A884209D3FFE70198006900F067
:10173000F7F80198016902200874FFE705E004E06A
:10174000019800F021F800E0FFE7FFE702B080BD5C
:1017500083B001900091019868B1FFE7009850B103
:10176000FFE7019840680099401AB0FA80F04009FC
:101770008DF80B0003E000208DF80B00FFE79DF8CB
:101780000B0003B07047000080B586B005900020C4
:10179000049003900598002878D0FFE70598007D15
:1017A0000146009140B1FFE70098012823D0FFE7F0
:1017B0000098022840D05BE0059807F00BF848B984
:1017C000FFE70598006802900298049005990120AF
:1017D00008750FE00598083006F0FCFF40B9FFE7F8
:1017E0000598FFF753FF049005990220087500E063
:1017F000FFE7FFE73DE005980069816A00F0A2F885
:101800000390039818B1FFE70398049013E005983C
:101810000169FFF79DFF30B1FFE7002004900599B3
:101820000220087506E0059800690068019001989B
:101830000490FFE7FFE71CE005980069816A00F06B
:1018400081F80390039830B1FFE7059901200875EE
:101850000398049004E00598FFF718FF0490FFE751
:101860000598006900F050F805990020086100E033
:10187000FFE7049830B1FFE7049900200874049949
:101880008862FFE7049805990861FFE7049806B0AD
:1018900080BD000080B582B001900091019840B1F8
:1018A000FFE7009828B1FFE70198009906F05EFF76
:1018B000FFE702B080BD000080B584B003900291C4
:1018C00001922C2008F086FA00900098C0B1FFE742
:1018D00000982C21FEF7E6FC0398009948610298D5
:1018E0000099886101980099886000990020087427
:1018F000009948620862C861009806F063FFFFE73C
:10190000009804B080BD000080B582B001900198BD
:1019100020B1FFE7019808F035FAFFE702B080BD7B
:1019200080B582B00190019850B1FFE701984069FD
:1019300028B1FFE70198416980698847FFE7FFE721
:1019400002B080BD83B001900091019858B1FFE7CB
:101950000098022807D8FFE70198009900EB810062
:10196000C069029002E000200290FFE7029803B0F5
:101970007047000082B00090009820B9FFE7032074
:101980008DF8070004E00098007C8DF80700FFE761
:101990009DF8070002B0704782B001900091019855
:1019A00020B1FFE7009801998862FFE702B0704715
:1019B00083B0029001910092029858B1FFE701981C
:1019C000022807D8FFE700980299019A01EB8201EB
:1019D000C861FFE703B0704782B001908DF8031033
:1019E000019828B1FFE79DF8030001990874FFE70B
:1019F00002B0704780B582B041F25800C2F20000D8
:101A000090F8990CC00770BBFFE741F25800C2F292
:101A10000000019040F64851FEF744FCFFF71CFE21
:101A200001460198C0F8441DD0F8440D40B9FFE7C5
:101A30004AF27811C0F60001682007F05DF9FFE76F
:101A400000F058FC41F25801C2F20001012081F877
:101A5000990C81F8A40C002081F8A50C00F006F880
:101A600000F060F8FFE702B080BD000080B549F6E5
:101A70003C70C0F6000005F04BF9014641F25800F9
:101A8000C2F20000C0F8941CD0F8940C40B9FFE7F3
:101A900049F6CD71C0F60001682007F02DF90CE081
:101AA00041F25800C2F20000D0F8940C46F6992199
:101AB000C0F6000105F02EFAFFE780BD80B584B0C6
:101AC0000390029141F25800C2F200000190029886
:101AD00030B1FFE7019802990522FEF700FC08E00B
:101AE000019849F6C771C0F600010522FEF7F7FB21
:101AF000FFE7039838B1FFE7019806300399062203
:101B0000FEF7EDFB09E00198063049F6C471C0F616
:101B100000010622FEF7E3FBFFE7FFF76BFF04B0CF
:101B200080BD000080B5A0B041F25800C2F20000B4
:101B3000D0F8440D1F9047F2B160C0F600000021BC
:101B4000009141F28832FFF7B7FE009A40F65071DB
:101B5000C2F200010C91086046F6B510C0F6000014
:101B60001146FFF7A9FE009A40F63031C2F200019B
:101B70000E91086046F64120C0F600001146FFF7BE
:101B80009BFE009A40F63431C2F2000110910860C9
:101B900046F2FD50C0F600001146FFF78DFE009A98
:101BA00040F62031C2F200010191086046F2D16096
:101BB000C0F600001146FFF77FFE009A40F628317C
:101BC000C2F200011291086046F24D60C0F60000BA
:101BD0001146FFF771FE009A40F62431C2F200016F
:101BE0001491086047F2A900C0F600001146FFF703
:101BF00063FE009A40F64C71C2F200011691086033
:101C000047F21500C0F600001146FFF755FE009A96
:101C100040F64871C2F200011891086046F679005A
:101C2000C0F600001146FFF747FE009A40F62C313F
:101C3000C2F200011A91086046F68570C0F60000F5
:101C40001146FFF739FE009A40F64071C2F20001DA
:101C50000291086046F6CD70C0F600001146FFF70D
:101C60002BFE0C9940F64472C2F200021D921060E5
:101C70001F980968FFF70EFE0E991F980968FFF775
:101C800009FE10991F980968FFF704FE01991F9833
:101C90000968FFF7FFFD12991F980968FFF7FAFD21
:101CA00014991F980968FFF7F5FD16991F980968A0
:101CB000FFF7F0FD18991F980968FFF7EBFD1A99D7
:101CC0001F980968FFF7E6FD02991F980968FFF75A
:101CD000E1FD1D991F980968FFF7DCFD0C9800686D
:101CE000039001200A90FFF7AFFC0C9A014603987D
:101CF0001268FFF75DFE0A980E9909680491FFF7D4
:101D0000A3FC0E9A014604981268FFF751FE0A9848
:101D1000109909680591FFF797FC109A01460598FC
:101D20001268FFF745FE0A98149909680691FFF7B3
:101D30008BFC149A014606981268FFF739FE0A9840
:101D4000169909680791FFF77FFC169A01460798D4
:101D50001268FFF72DFE0A98189909680891FFF795
:101D600073FC189A014608981268FFF721FE0A983A
:101D70001A9909680991FFF767FC1A9A01460998B0
:101D80001268FFF715FE0A981D9909680B91FFF775
:101D90005BFC1D9A01460B981268FFF709FE0C9830
:101DA00000680D9002201C90FFF74EFC0C9A014633
:101DB0000D981268FFF7FCFD0E991C9809680F91A9
:101DC000FFF742FC0E9A01460F981268FFF7F0FDEC
:101DD00010991C9809681191FFF736FC109A01467A
:101DE00011981268FFF7E4FD12991C980968139185
:101DF000FFF72AFC129A014613981268FFF7D8FDE4
:101E000014991C9809681591FFF71EFC149A014655
:101E100015981268FFF7CCFD16991C980968179160
:101E2000FFF712FC169A014617981268FFF7C0FDDB
:101E300018991C9809681991FFF706FC189A014631
:101E400019981268FFF7B4FD1A991C9809681B913C
:101E5000FFF7FAFB1A9A01461B981268FFF7A8FDD4
:101E60001C981D9909681E91FFF7EEFB1D9A01460B
:101E70001E981268FFF79CFD20B080BD80B582B02F
:101E800041F25800C2F200000190D0F8940C05F025
:101E90001DF80198D0F8440DFFF720FC02B080BD7A
:101EA00081B00090009841F25801C2F20001C1F8DF
:101EB000300D01B07047000080B592B011901091C4
:101EC0000F9200200E9000F0C7F9002800F0B380B8
:101ED000FFE700200D900C9040F2FE310B910A902C
:101EE0000F9840000C90119A40F64030C2F200006A
:101EF0004AF2E601C0F6000107F090FA0A900A994A
:101F00000B98401A0B900C980B99884203D9FFE765
:101F10000B98069002E00C980690FFE706980D904B
:101F20000D9840080D9000200990FFE709980D9941
:101F3000884216D2FFE70A9940F64030C2F200000C
:101F40000844099A00EB420010998A5C4AF2313148
:101F5000C0F6000107F062FAFFE709980130099026
:101F6000E4E70D990A9800EB41000A900A9940F6BF
:101F70004030C2F2000008444AF23E11C0F60001AF
:101F800007F04CFA01460A9808440A9041F25800BA
:101F9000C2F20000D0F8440D0890119947F2FD30CC
:101FA000C0F600000022FFF787FC0790079858B999
:101FB000FFE74AF25211C0F60001682006F09CFECD
:101FC00000200E90FFE7FEE741F25801C2F2000147
:101FD000019140F64030C2F20000C1F89C0C0D980F
:101FE000C1F8A00C0120039081F8A40C089807996F
:101FF000FFF762FB079802900220FFF725FB019A8A
:1020000001460298119B02F54F62049252F8232078
:10201000FFF7CEFC039807990591FFF715FB049A8B
:1020200001460598119B52F82320FFF7C1FC0D983B
:102030000E90FFE7FFE70E9812B080BD80B586B026
:1020400005900491ADF80E2041F25800C2F2000054
:1020500002900298059901EB4111084400F62640D0
:1020600004992022FEF73BF9BDF80E000299059A6B
:1020700001EB4201A1F88A0C02980599084490F8F6
:10208000900CC00760BBFFE702980599014401204E
:10209000019081F8900C059800F026F8059800F062
:1020A000A1F84FF40070009004F002FE009A019B2A
:1020B0008446DDF814E041F25800C2F2000000F658
:1020C000A84141F82EC0DDF814C00CEB8C0E00EBDB
:1020D0008E0000F6B44051F82C1005F0B9FBFFE774
:1020E000002006B080BD000080B590B00F900F9921
:1020F00047F26120C0F6000000220192FFF7DCFBEE
:10210000019A0E900F9947F2C120C0F60000FFF728
:10211000D3FB019A0D900F9947F2E540C0F60000FD
:10212000FFF7CAFB0C900E990F9A41F25800C2F2C9
:10213000000000EB8202C2F8F01CD0F8440D0B90B6
:102140000B980E99FFF7A6FB0B980D99FFF7A2FBD2
:102150000B980C99FFF79EFB0E98029001200490BB
:10216000FFF772FA014602980E9AFFF721FC0498D5
:102170000D990391FFF768FA014603980D9AFFF74E
:1021800017FC04980C990591FFF75EFA0146059833
:1021900040F64072C2F2000209921268FFF708FC92
:1021A0000E98069002200890FFF74EFA0146069816
:1021B0000E9AFFF7FDFB08980D990791FFF744FA77
:1021C000014607980D9AFFF7F3FB08980C990A91BE
:1021D000FFF73AFA099A01460A981268FFF7E8FBF6
:1021E00010B080BD80B584B0039041F25801C2F2B6
:1021F0000001019191F82C2D01F6FC400290130191
:102200004AF23112C0F60002C25091F82C2D00EBB8
:1022100002134AF29072C0F600025A6091F82C1D27
:1022200000EB01110D200872039805F0F7F9019AEF
:10223000029992F82C3D01EB0313D86092F82C0D13
:10224000013082F82C0DD2F8940C92F82C2D04F069
:1022500069FE04B080BD000041F25800C2F20000E7
:1022600090F8A40CB0FA80F04009704780B584B0B3
:102270000390029101920020009003980299019A24
:10228000FFF71AFE0090009804B080BD80B584B0BE
:1022900003900291019200208DF803000198072815
:1022A00019DBFFE703994AF65520088003990020BF
:1022B0004880039808300299019A043A06F002FA1D
:1022C0000398143002990431019A06F0FBF90120B9
:1022D0008DF80300FFE79DF8030004B080BD000007
:1022E00080B549F6B371C0F60001682006F004FD20
:1022F000FFE7FEE780B590B0002006900F900E90AB
:102300000D900C900B900A90099008900790012076
:10231000039000F0A5FB1020029000F0A1FB0399B0
:1023200006980C220792089109900A900B9041F2AE
:102330000000C4F6000007A9049100F06DFC029BA8
:10234000039A049906980793089209900A900B90B3
:102350004FF09040059000F05FFC0499069A0598B4
:1023600020230793089209920A920B9200F054FCE2
:10237000069B6846036002204FF4E1311A4603F0E1
:102380006DF900F009F800F01BF8212000F026F9A3
:1023900000F00CF810B080BD80B541F20000C4F62A
:1023A0000000042100F034FD80BD000080B541F242
:1023B0000000C4F60000082100F02AFD80BD0000E6
:1023C00080B54FF09040102100F09CFC80BD0000D3
:1023D00070470000704700007047000083B080B570
:1023E00083B0079306920591029005A80090029A87
:1023F000009B40F65470C2F200004FF4807107F069
:1024000021F801900198B0F5807F04D9FFE74FF4DF
:1024100080700190FFE7019A40F65471C2F200010A
:10242000012003F0CBFC03B0BDE8804003B070474F
:1024300080B54FF4805000F0C9FB28B1FFE74FF49E
:10244000805000F0B9FBFFE780BD000081B0EFF3E2
:10245000108072B60090FFE7FEE7000040F29C009B
:10246000C2F20000026843F64411C2F2000108689B
:10247000104408607047000080B582B000208DF8DD
:102480000700032000F090F80F2000F00DF820B1B5
:10249000FFE701208DF8070002E000F049F8FFE7B0
:1024A0009DF8070002B080BD80B582B00190002089
:1024B0008DF8030040F29C00C2F20000006878B37F
:1024C000FFE740F26C00C2F20000006840F29C019D
:1024D000C2F200010A684FF47A71B1FBF2F1B0FB6D
:1024E000F1F000F073F8B0B9FFE701980F280DD8AC
:1024F000FFE701994FF0FF30002200F03DF801980E
:1025000040F2A001C2F20001086003E001208DF852
:102510000300FFE703E001208DF80300FFE703E07D
:1025200001208DF80300FFE79DF8030002B080BD95
:1025300080B582B0FFE741F26000C4F2020001689A
:1025400041F001010160006800F001000190019874
:10255000FFE7FFE741F25800C4F20200016841F0D2
:1025600080510160006800F0805000900098FFE703
:1025700000F022F802B080BD80B586B08DF817005B
:102580000491039203F0EEFD02909DF91700019073
:1025900002980499039A02F01FFA0146019803F089
:1025A000F9FD06B080BD000080B582B001900198B1
:1025B00003F056FE02B080BD47F20801C4F20001EC
:1025C000086840F4804008607047000080B582B021
:1025D0000190019802F0EAFB02B080BD80B584B0A2
:1025E000039000F00FF8029003980190FFE700F0CD
:1025F00009F80299401A0199884201D2FFE7F6E7EB
:1026000004B080BD43F64010C2F20000006870477D
:1026100080B58EB0002005900D900C900B900A9024
:1026200009904FF4006000F0B5FA03F0ABFD059A95
:102630000F21049102F03CFA01461920019003F0A9
:10264000EDFD019803F076FD05981021ADF82410FA
:102650000A9042F20F710B910C900D9042F60040DF
:10266000C4F20100029009A9039101F0F5FC02985F
:1026700001F0B6FC0298059942F60843C4F2010342
:102680001A680892089A4FF6887CCFF6CE7C02EA48
:102690000C020892089A22F47F420892089A1A6063
:1026A00001F0CCFD0298059901F0F0FD0298059922
:1026B00001F0FCFD029801F0A7FC0298059901F0D9
:1026C000CDFD029801F0B4FC029801F0A7FC0120B6
:1026D00000F01AFA03990598A922ADF824200A906F
:1026E0004FF0FF320B920C900D904FF0804007900E
:1026F00001F0B2FC079801F073FC0599079801F00E
:102700009DFD0599079801F0C1FD079801F07CFC3B
:102710000599079801F0A2FD079801F06BFC03F002
:1027200031FD0499059A02F0C3F901461C20069078
:1027300003F074FD069803F0FDFC079801F06EFCB1
:102740000EB080BD84B0039042F60800C4F20000D1
:10275000006880B2009042F60000C4F200000068F9
:1027600047F67F71C0F27F010840029042F60400F4
:10277000C4F2000000684FF63F71C0F2FF0108404C
:1027800001900298C0F3015000EB80010298C0F361
:10279000034000EB4100039908710298C0F3023036
:1027A00000EB80010298C0F3032000EB4100039985
:1027B00048710298C0F3021000EB8001029800F00B
:1027C0000F0000EB4100039988710098C0F580600C
:1027D000039908810198C0F3035000EB8001019830
:1027E000C0F3034000EB41014FF4FA6050FA81F06E
:1027F000039908800198C0F3003000EB8001019834
:10280000C0F3032000EB4100039988700198C0F3E6
:10281000011000EB8001019800F00F0000EB410077
:102820000399C87004B0704780B586B00590002049
:1028300004900DF106000090FFF784FF009805F06A
:1028400071FE0490BDF80E0005990880049806B04A
:1028500080BD000080B58AB00020099008900790E4
:1028600000F004FEB0F5807F33D0FFE74FF08050DA
:1028700000F05CF9012805D0FFE74FF0805000F030
:102880001FF9FFE700F068FD012809D0FFE700F01D
:102890004FFDFFE700F060FD08B9FFE7FAE7FFE74B
:1028A00000F076FD01F03EF8002000F0C3FF00F0DC
:1028B00091FFFFE700F0A8FF012801D0FFE7F9E74B
:1028C0004FF4807001F062F84FF0805000F0ECF8A7
:1028D000FFE742F60000C4F20000039001F0C0F8E8
:1028E00000F04CFD4FF4806000F0EAF803980021FE
:1028F000029107911F21089140F2FF31099107A928
:1029000001F0CCF90299039801F07CF843F2F2212E
:10291000884224D0FFE740F2E670ADF812000C20A8
:102920008DF8140014208DF8150019208DF817006B
:102930000E208DF81600002001908DF81800ADF8DB
:102940001A000DF1120000F00DF8019942F6000096
:10295000C4F2000043F2F22201F064F8FFE70AB08B
:1029600080BD000080B586B00590002100910491E3
:1029700003910291059800798DF81000059840792F
:102980008DF81100059880798DF8120042F600004C
:10299000C4F20000019003AA01F012FA05988078B1
:1029A0008DF809000598C0788DF80A000598008810
:1029B000A0F5FA608DF80B00059A10889178D2780E
:1029C00003F0B4FC0099024601988DF8082002AA91
:1029D00001F074F806B080BD80B586B0059005980A
:1029E0000DF10A01019106F0F5FB0198FFF7BAFF1E
:1029F00006B080BD80B549F68E71C0F60001682032
:102A000006F07AF9FFE7FEE781B0009000980060D9
:102A10000098406001B0704782B00190019A41F285
:102A20004C00C4F202000168114301600068019982
:102A300008400090009802B07047000082B00190FA
:102A4000019A41F24C00C4F2020001681143016096
:102A50000068019908400090009802B0704700009B
:102A600082B00190019A41F24C00C4F20200016868
:102A7000114301600068019908400090009802B07D
:102A80007047000082B00190019A41F24C00C4F2FC
:102A9000020001681143016000680199084000903C
:102AA000009802B07047000081B00090009A41F297
:102AB0005801C4F2020108689043086001B07047F1
:102AC00082B00190019A41F25800C4F202000168FC
:102AD000114301600068019908400090009802B01D
:102AE0007047000082B00190019A41F25800C4F290
:102AF00002000168114301600068019908400090DC
:102B0000009802B07047000082B00190019A41F233
:102B10005800C4F202000168114301600068019985
:102B200008400090009802B07047000081B000900B
:102B300041F25800C4F20200006800990840401AAF
:102B4000B0FA80F0400901B07047000082B00190F7
:102B5000019A41F25C00C4F2020001681143016075
:102B60000068019908400090009802B0704700008A
:102B700082B00190019A41F26000C4F20200016843
:102B8000114301600068019908400090009802B06C
:102B90007047000082B00190019A41F26000C4F2D7
:102BA000020001681143016000680199084000902B
:102BB000009802B07047000081B00090009840F289
:102BC0001441C4F20101086001B0704781B0009067
:102BD00040F21440C4F20100006800990840401A15
:102BE000B0FA80F0400901B07047000042F20000E6
:102BF000C4F20200006800F00F00704781B000903E
:102C000042F20001C4F20201086820F00F00009AAD
:102C10001043086001B0704780B586B00390029100
:102C20000298006890FAA0F00490049820B9FFE799
:102C300020208DF8170005E00498B0FA80F08DF898
:102C40001700FFE79DF817000190FFE70298006862
:102C50000199C84000284AD0FFE702980068019A0D
:102C600001219140084000900098E0B3FFE70298EE
:102C70004068012805D0FFE70298406802280DD17E
:102C8000FFE703980099029A926800F05DF90398B3
:102C9000029A1168D26800F009F9FFE703980099D9
:102CA000029A126900F012F902984068022813D1C2
:102CB000FFE70098FF2807D8FFE703980099029ADA
:102CC000526900F027F806E003980099029A5269C9
:102CD00000F05EF8FFE7FFE703980099029A526858
:102CE00000F0A6F8FFE7019801300190AEE7002060
:102CF00006B080BD82B00190009100980199886271
:102D000002B0704782B001900091009801998862EA
:102D100002B070478AB00590049103920598006A4A
:102D20000290049890FAA0F00890089820B9FFE764
:102D300020208DF8270005E00898B0FA80F08DF883
:102D40002700FFE702989DF827108A000F21914085
:102D50008843009003980190049890FAA0F00690A0
:102D6000069820B9FFE720208DF81F0005E006989F
:102D7000B0FA80F08DF81F00FFE7009801999DF8E8
:102D80001F20920091400843059908620AB07047DD
:102D90008AB00590049103920598406A02900498C5
:102DA000000A90FAA0F00890089820B9FFE72020C8
:102DB0008DF8270005E00898B0FA80F08DF827001C
:102DC000FFE702989DF827108A000F219140884361
:102DD0000090039801900498000A90FAA0F00690E1
:102DE000069820B9FFE720208DF81F0005E006981F
:102DF000B0FA80F08DF81F00FFE7009801999DF868
:102E00001F20920091400843059948620AB070471C
:102E100082B00190009100980199886102B07047DA
:102E200082B00190009100980199886102B07047CA
:102E30008AB0059004910392059800680290049866
:102E400090FAA0F00890089820B9FFE720208DF8AC
:102E5000270005E00898B0FA80F08DF82700FFE71A
:102E600002989DF827104A00032191408843009062
:102E700003980190049890FAA0F00690069820B963
:102E8000FFE720208DF81F0005E00698B0FA80F0DB
:102E90008DF81F00FFE7009801999DF81F20520050
:102EA00091400843059908600AB0704783B00290CA
:102EB000019100920298406801998843009A514319
:102EC00008430299486003B0704700008AB005903B
:102ED000049103920598C0680290049890FAA0F0BB
:102EE0000890089820B9FFE720208DF8270005E01A
:102EF0000898B0FA80F08DF82700FFE702989DF857
:102F000027104A00032191408843009003980190C4
:102F1000049890FAA0F00690069820B9FFE72020C8
:102F20008DF81F0005E00698B0FA80F08DF81F00BC
:102F3000FFE7009801999DF81F2052009140084337
:102F40000599C8600AB070478AB005900491039251
:102F5000059880680290049890FAA0F0089008986C
:102F600020B9FFE720208DF8270005E00898B0FA87
:102F700080F08DF82700FFE702989DF827104A009F
:102F8000032191408843009003980190049890FA9F
:102F9000A0F00690069820B9FFE720208DF81F00CA
:102FA00005E00698B0FA80F08DF81F00FFE7009862
:102FB00001999DF81F2052009140084305998860AF
:102FC0000AB0704781B0009000990220086201B0F9
:102FD0007047000081B0009000990820086201B09D
:102FE0007047000081B0009000990120086201B094
:102FF0007047000082B00190FFE7FFE7019850E8BA
:10300000000F20F040000090FFE70099019A42E88D
:1030100000100028F2D1FFE7FFE702B07047000080
:1030200081B000900099086840F00100086001B08C
:103030007047000081B000900099086840F000508F
:10304000086001B07047000082B00190FFE7FFE721
:10305000019850E8000F40F480700090FFE700995D
:10306000019A42E800100028F2D1FFE7FFE702B022
:103070007047000082B00190FFE7FFE7019850E839
:10308000000F40F020000090FFE70099019A42E80D
:1030900000100028F2D1FFE7FFE702B07047000000
:1030A00082B00190FFE7FFE7019850E8000F40F081
:1030B00040000090FFE70099019A42E800100028C4
:1030C000F2D1FFE7FFE702B07047000082B0019045
:1030D000FFE7FFE7019850E8000F40F080400090C4
:1030E000FFE70099019A42E800100028F2D1FFE7BB
:1030F000FFE702B07047000080B584B003900291F2
:1031000001208DF80700039800F066F8B8BBFFE7D0
:10311000039800684EF6F311CEF6FF710840029A4C
:103120009168136952691943114308430399086070
:1031300003980299C96800F0BFF803980299896959
:1031400000F084F84FF4406000F044F900900098DB
:1031500078B1FFE70298406858B1FFE700208DF88A
:10316000070003980099029B1A685B6800F044F816
:10317000FFE703980299096800F076F8FFE79DF8E9
:10318000070004B080BD000081B000900098C069C5
:10319000C0F3C00001B0704781B000900098C069D2
:1031A000C0F3805001B0704781B000900098C069B2
:1031B000C0F3401001B0704781B000900098C06922
:1031C000C0F3405001B0704781B000900098C069D2
:1031D000C0B2C00901B0704781B00090009800688B
:1031E00000F0010001B0704781B000900098406A83
:1031F000C0B201B07047000080B586B00590049160
:10320000039202930298F8B1FFE70498BDF80C20EE
:1032100049F6F461C0F6000131F812200023019351
:103220001946FCF7F5FF019B090241EA1061000213
:10323000029A10EB520041F10001FCF7E9FF6FF335
:103240001F500599C860FFE706B080BD82B00190AD
:1032500000910198806820F440700099084301991A
:10326000886002B07047000082B001900091019820
:10327000C06A20F00F00BDF8001008430199C86231
:1032800002B0704783B002900191FFE7FFE7029818
:1032900050E8020F20F06060019940EA4160009020
:1032A000FFE70099029A42E802100028EFD1FFE7F9
:1032B000FFE703B07047000082B0019000910198D1
:1032C000406820F44050009908430199486002B0DA
:1032D0007047000083B002900191FFE7FFE702987A
:1032E00050E8020F20F06040019940EA41700090E0
:1032F000FFE70099029A42E802100028EFD1FFE7A9
:10330000FFE703B07047000082B001908DF8031012
:103310009DF803000199886202B0704747F20001EE
:10332000C4F20001086840F4807008607047000033
:1033300047F20001C4F20001086840F480700860A0
:103340007047000047F28001C4F20001086820F4D1
:10335000807008607047000081B047F20000C4F23E
:103360000000006800F4807000900098A0F5807064
:10337000B0FA80F0400901B07047000041F29001BE
:10338000C4F20201086840F4004008607047000081
:1033900041F29001C4F20201086840F480300860F4
:1033A0007047000041F20800C4F20200006800F01B
:1033B000F000704741F20800C4F20200006800F417
:1033C000E060704741F20800C4F20200006800F4B7
:1033D0006050704780B584B003900020029003983D
:1033E00000F038F80146019138B3FFE70198B0F5D5
:1033F000806F0AD0FFE70198B0F5006F09D0FFE7B2
:103400000198B0F5406F0FD018E001F057FC029022
:103410001CE000F0CDF930B1FFE742F20040C0F20D
:10342000F4000290FFE711E000F0E6F920B1FFE7B9
:103430004FF400400290FFE708E0FFE701F03EFC98
:1034400001F0FEFB01F012FC0290FFE7029804B0CD
:1034500080BD000081B0009041F28800C4F20200FB
:1034600000680099084001B07047000041F29000E8
:10347000C4F20200006800F44070704741F2080096
:10348000C4F20200006800F00C00704741F208002E
:10349000C4F20200006800F00C00704780B584B0F0
:1034A0000390002002900398C0283ED1FFE70398C4
:1034B00000F084F801460191B0F5400F2BD0FFE7F2
:1034C00001984021C0F2C00188420CD0FFE701986A
:1034D0008021C0F2C001884209D0FFE70198B0F115
:1034E000C01F0FD018E001F0E9FB02901CE000F0D3
:1034F0005FF930B1FFE742F20040C0F2F400029001
:10350000FFE711E000F078F920B1FFE74FF4004049
:103510000290FFE708E0FFE701F0D0FB01F090FB2D
:1035200001F0A4FB0290FFE7FFE70398B0F5407FAE
:1035300040D1FFE7039800F041F801460091B0F157
:10354000407F2DD0FFE7009840F20011C0F200311B
:1035500088420DD0FFE7009840F20021C0F2003110
:10356000884209D0FFE70098B0F1032F0FD018E090
:1035700001F0A4FB02901CE000F01AF930B1FFE763
:1035800042F20040C0F2F4000290FFE711E000F0C8
:1035900033F920B1FFE74FF400400290FFE708E065
:1035A000FFE701F08BFB01F04BFB01F05FFB0290AA
:1035B000FFE7FFE7029804B080BD000081B00090F3
:1035C00041F28800C4F2020000680099084040EA15
:1035D000014001B07047000080B586B00590002022
:1035E00004900598032830D1FFE7059800F0AEF865
:1035F000A0F540300146039103281DD80399DFE868
:1036000001F01A02061101F059FB04901CE000F0D1
:10361000CFF830B1FFE742F20040C0F2F40004906E
:10362000FFE711E000F0E8F820B1FFE74FF40040B9
:103630000490FFE708E0FFE701F040FB01F000FB2A
:1036400001F028FB0490FFE77CE005980C2835D1B9
:10365000FFE7059800F07AF8A0F5402001460291B6
:103660000C2822D80299DFE801F01F202020072033
:1036700020200B202020160001F020FB04901CE0ED
:1036800000F096F830B1FFE742F20040C0F2F400DB
:103690000490FFE711E000F0AFF820B1FFE74FF42E
:1036A00000400490FFE708E0FFE701F007FB01F0AE
:1036B000C7FA01F0DBFA0490FFE742E005983028F2
:1036C0003ED1FFE7059800F041F801460191B0F5C1
:1036D000401F2BD0FFE701981021C0F23001884233
:1036E0000CD0FFE701982021C0F23001884209D0B8
:1036F000FFE70198B0F1301F0FD018E001F0DEFABB
:1037000004901CE000F054F830B1FFE742F20040B2
:10371000C0F2F4000490FFE711E000F06DF820B172
:10372000FFE74FF400400490FFE708E0FFE701F0F7
:10373000C5FA01F085FA01F099FA0490FFE7FFE776
:10374000FFE7FFE7049806B080BD000081B000905D
:1037500041F28800C4F2020000680099084040EA83
:10376000014001B07047000041F20001C4F20201C3
:10377000086840F4803008607047000041F20000A3
:10378000C4F202000068C0F34040704741F2980163
:10379000C4F20201086840F00100086070470000B0
:1037A00041F29800C4F202000068C0F34000704784
:1037B00041F20000C4F202000068C0F380207047AC
:1037C00041F29001C4F20201086840F00100086073
:1037D0007047000041F29001C4F20201086840F015
:1037E000010008607047000041F29000C4F202003E
:1037F0000068C0F34000704741F29000C4F202003C
:103800000068C0F34000704741F29000C4F202002B
:103810000068C0F34000704781B0009041F2900111
:10382000C4F20201086820F01800009A10430860F2
:1038300001B0704781B0009041F29001C4F20201E2
:10384000086820F01800009A1043086001B0704723
:1038500041F29401C4F20201086840F001000860DE
:103860007047000041F29400C4F202000068C0F307
:103870004000704784B0039002910192009341F29E
:103880000C01C4F20201086848F20C02CFF6FF12E4
:103890001040039A029B1A43019B42EA0322009BB9
:1038A0001A431043086004B07047000041F2000161
:1038B000C4F20201086840F08070086070470000A0
:1038C00041F20C01C4F20201086840F08070086007
:1038D0007047000041F20C00C4F20200006800F0E2
:1038E000F000704741F20C00C4F20200006800F0E2
:1038F0000300704741F20C00C4F202000068C0F3FC
:103900000620704741F20C00C4F20200006800F08B
:10391000C060704741F20000C4F202000068C0F3CA
:103920004060704741F29001C4F20201086820F43F
:10393000803008607047000081B0009041F20801BB
:10394000C4F20201086820F0F000009A10430860F9
:1039500001B0704781B0009041F20801C4F2020149
:10396000086820F4E060009A1043086001B07047D6
:1039700081B0009041F20801C4F20201086820F40D
:103980006050009A1043086001B0704781B0009009
:1039900041F29001C4F20201086820F44070009ADC
:1039A0001043086001B0704781B0009041F20801F7
:1039B000C4F20201086820F00300009A1043086076
:1039C00001B0704781B0009041F28801C4F2020159
:1039D0000868009A20EA124092B21043086001B0D1
:1039E0007047000081B0009041F28801C4F20201EA
:1039F0000868009A20EA124092B21043086001B0B1
:103A00007047000083B002900191019942F200508A
:103A1000C4F2000000EB810000900098006803B041
:103A20007047000084B0039002910192029942F223
:103A30000050C4F2000000EB810000900198009952
:103A4000086004B07047000081B000900098C06822
:103A500000F0800060F0A0000099C86001B07047DD
:103A600081B000900098C06800F0800060F0A00075
:103A70000099C86001B0704785B0DDF814C00490AB
:103A8000039102920193039840039DF8141040EAB9
:103A900001409DF8041040EA01209DF808100844F8
:103AA000009004984068C021CFF60071084000994A
:103AB00008430499486005B070470000B0B586B06F
:103AC00005900491039201208DF80B00049868B9C9
:103AD000FFE703984078C006002807D5FFE7039961
:103AE000487800F0EF000A304870FFE7049808B902
:103AF000FFE700E0FFE7059800F06EF8059800F09A
:103B000085F8012858D0FFE7049888B1FFE70598A9
:103B1000DDF80CC09CF800109CF801309CF80220E5
:103B20009CF803C0EE46CEF800C0FFF7A5FF30E0DA
:103B30000598DDF80CC09CF800109CF801309CF84A
:103B400002209CF803C049F69A1EC1F6991EA2FBFA
:103B50000E5404EB8405A2EB450242EA0412D2B2F1
:103B6000A3FB0E5404EB8405A3EB450343EA0413C3
:103B7000DBB2ACFB0E4E0EEB8E04ACEB440C4CEA0D
:103B80000E1C5FFA8CFCEE46CEF800C0FFF774FF07
:103B9000FFE7059800F018F8059800F0BDF830B977
:103BA000FFE7059800F096F98DF80B0003E0002080
:103BB0008DF80B00FFE7FFE7059800F01FF89DF870
:103BC0000B0006B0B0BD000081B0009000996FF00E
:103BD0008000C86001B0704781B000900099CA2091
:103BE000486200995320486201B0704781B000904C
:103BF00000994FF0FF30C86001B0704781B000906D
:103C00000099FF20486201B07047000080B586B07F
:103C100005904FF47A70049000208DF80F000598FD
:103C200000F06AF868BBFFE70598FFF7DFFF05982B
:103C300000F062F80290FFE704990020019031B192
:103C4000FFE70298013818BF01200190FFE70198B3
:103C5000C007A8B1FFE700F0A9F9012804D1FFE7E8
:103C6000049801380490FFE7059800F045F80290A9
:103C7000049820B9FFE701208DF80F00FFE7DBE78C
:103C8000FFE79DF80F0006B080BD000081B00090F6
:103C90000098806900F0400001B0704780B584B0A2
:103CA0000390029101208DF807000398FFF794FF1D
:103CB0000398FFF7ABFF012816D0FFE7039802999E
:103CC000096800F03FF803980299896800F048F805
:103CD00003980299496800F027F80398FFF774FFEA
:103CE00000208DF80700FFE70398FFF787FF9DF896
:103CF000070004B080BD000081B000900098C0684B
:103D0000C0F3801001B0704781B000900098C06887
:103D1000C0F3401001B0704781B0009000988069F6
:103D2000C0F3401001B0704782B00190009101983B
:103D3000006920F4FE00009940EA01400199086101
:103D400002B0704782B0019000910198806920F024
:103D50004000009908430199886102B07047000053
:103D600082B0019000910198006947F6FF71884385
:103D7000009908430199086102B0704785B0DDF8E9
:103D800014C0049003910292019303989DF80810C7
:103D900040EA01409DF8041040EA01209DF814100B
:103DA000084300900498006848F28001CFF68071C3
:103DB0000840009908430499086005B07047000066
:103DC000B0B586B005900491039201208DF80B00E8
:103DD000049858B9FFE70598FFF758FF08B1FFE7C7
:103DE00003E0039900200860FFE70AE00598FFF769
:103DF0004DFF08B1FFE703E0039900200860FFE7EB
:103E0000FFE70598FFF7E8FE0598FFF7FFFE01289A
:103E100058D0FFE7049888B1FFE70598DDF80CC09B
:103E2000DCF800109CF804209CF805309CF806C0D3
:103E3000EE46CEF800C0FFF7A1FF30E00598DDF8B0
:103E40000CC0DCF800109CF8042049F69A1EC1F65C
:103E5000991EA2FB0E4303EB8304A2EB440242EA49
:103E60000312D2B29CF80530A3FB0E5404EB840578
:103E7000A3EB450343EA0413DBB29CF806C0ACFB9A
:103E80000E4E0EEB8E04ACEB440C4CEA0E1C5FFAAB
:103E90008CFCEE46CEF800C0FFF770FFFFE70598F8
:103EA000FFF792FE0598FFF737FF30B9FFE7059857
:103EB00000F010F88DF80B0003E000208DF80B00E7
:103EC000FFE7FFE70598FFF799FE9DF80B0006B0A6
:103ED000B0BD000080B586B005904FF47A700490B4
:103EE00000208DF80F000598FFF7AEFD0598FFF74D
:103EF0000BFF0290FFE704990020019031B1FFE72A
:103F00000298002818BF01200190FFE70198C00720
:103F1000A8B1FFE700F04AF8012804D1FFE70498B0
:103F200001380490FFE70598FFF7EEFE0290049831
:103F300020B9FFE701208DF80F00FFE7DBE79DF8D0
:103F40000F0001282DD0FFE74FF47A7004900598F8
:103F5000FFF7DAFE0290FFE704990020009031B1EC
:103F6000FFE70298013818BF01200090FFE7009892
:103F7000C007A8B1FFE700F019F8012804D1FFE756
:103F8000049801380490FFE70598FFF7BDFE029002
:103F9000049820B9FFE701208DF80F00FFE7DBE769
:103FA000FFE79DF80F0006B080BD00004EF2100044
:103FB000CEF200000068C0F30040704781B000906E
:103FC000009840F26C01C2F20001086001B0704735
:103FD00081B0009000996FF00100086101B0704756
:103FE00081B000900099086820F08000086001B05E
:103FF0007047000081B000900099C86820F001006F
:10400000C86001B07047000081B0009000998868D6
:1040100020F08000886001B07047000081B00090FF
:104020000099086840F00100086001B07047000086
:1040300081B000900099C86840F00100C86001B0EC
:104040007047000081B000900099486940F001007D
:10405000486101B07047000080B584B003900291C0
:10406000039800680190039842F60041C4F20101F0
:1040700088422DD0FFE70398B0F1804F28D0FFE7AA
:10408000039840F20041C4F20001884220D0FFE7CB
:10409000039840F60001C4F20001884218D0FFE7FF
:1040A000039840F60041C4F20001884210D0FFE7B7
:1040B000039843F20041C4F20101884208D0FFE7AF
:1040C000039845F20001C4F20101884208D1FFE7DC
:1040D000019820F070000299496808430190FFE7B9
:1040E000039842F60041C4F20101884245D0FFE73F
:1040F0000398B0F1804F40D0FFE7039840F20041B1
:10410000C4F20001884238D0FFE7039840F600016E
:10411000C4F20001884230D0FFE7039840F6004126
:10412000C4F20001884228D0FFE7039843F200411F
:10413000C4F20101884220D0FFE7039844F2000155
:10414000C4F20101884218D0FFE7039844F200410D
:10415000C4F20101884210D0FFE7039844F6000141
:10416000C4F20101884208D0FFE7039845F200013C
:10417000C4F20101884208D1FFE7019820F44070A1
:104180000299C96808430190FFE701980399086004
:1041900003980299896800F049F803980299098800
:1041A00000F064F8039842F60041C4F2010188422D
:1041B00028D0FFE7039843F20041C4F2010188428E
:1041C00020D0FFE7039844F20001C4F201018842C5
:1041D00018D0FFE7039844F20041C4F2010188427D
:1041E00010D0FFE7039844F60001C4F201018842B1
:1041F00008D0FFE7039845F20001C4F201018842AC
:1042000006D1FFE703980299096900F037F8FFE744
:104210000398FFF717FF002004B080BD81B0009025
:104220000098006900F0010001B0704782B0019071
:10423000009100980199C86202B0704782B0019065
:104240000091019880684BF6F871CFF6FE71084036
:10425000009908430199886002B0704782B00190CC
:10426000009100980199486202B0704782B00190B5
:10427000009100980199886202B0704782B0019065
:10428000009100980199086302B0704782B00190D4
:104290000091019840684FF68F71CFF6FF510840AA
:1042A000009908430199486002B0704782B00190BC
:1042B00000910198406820F470000099084301992A
:1042C000486002B07047000081B000900099022061
:1042D000086201B07047000081B00090009908208A
:1042E000086201B07047000081B000900099012081
:1042F000086201B07047000081B0009000994868E2
:1043000020F4904048600099886820F02A00886076
:1043100001B0704782B00190FFE7FFE7019850E8D5
:10432000000F20F040000090FFE70099019A42E85A
:1043300000100028F2D1FFE7FFE702B0704700004D
:1043400082B00190FFE7FFE7019850E8000F20F0EE
:1043500080000090FFE70099019A42E800100028D1
:10436000F2D1FFE7FFE702B07047000082B0019092
:10437000FFE7FFE7019850E8000F20F08040009031
:10438000FFE70099019A42E800100028F2D1FFE708
:10439000FFE702B07047000081B000900099086804
:1043A00040F00100086001B07047000081B000904B
:1043B0000099086840F00050086001B070470000A4
:1043C00082B00190FFE7FFE7019850E8000F40F44A
:1043D00080700090FFE70099019A42E800100028E1
:1043E000F2D1FFE7FFE702B07047000082B0019012
:1043F000FFE7FFE7019850E8000F40F02000009031
:10440000FFE70099019A42E800100028F2D1FFE787
:10441000FFE702B07047000082B00190FFE7FFE7BE
:10442000019850E8000F40F040000090FFE700992D
:10443000019A42E800100028F2D1FFE7FFE702B03E
:104440007047000082B00190FFE7FFE7019850E855
:10445000000F40F080000090FFE70099019A42E8C9
:1044600000100028F2D1FFE7FFE702B0704700001C
:1044700080B586B00590049101208DF80F000020D2
:104480000290059800F0AAF8002840F08380FFE72A
:104490000598006846F6F311CEF6FF710840049ABD
:1044A0009168D2F810C05369D26941EA0C011943EE
:1044B000114308430599086005980499C96800F0FC
:1044C00033F905980499896900F0F8F8059843F6DE
:1044D0000001C4F20101884205D1FFE70320FFF784
:1044E0007BF8029039E0059844F20041C4F20001E3
:1044F000884205D1FFE70C20FFF76EF802902BE011
:10450000059844F60001C4F20001884205D1FFE796
:104510003020FFF761F802901DE0059844F6004155
:10452000C4F20001884205D1FFE7C020FEF7B6FFC4
:1045300002900FE0059845F20001C4F200018842A4
:1045400006D1FFE74FF44070FEF7A8FF029000E0AD
:10455000FFE7FFE7FFE7FFE7FFE70298A0B1FFE70C
:104560000498406880B1FFE700208DF80F0005989F
:104570000299049B1A68D3F804C0DB69EE46CEF8B2
:1045800000C000F04BF8FFE705980499096800F0B7
:10459000A3F8FFE79DF80F0006B080BD81B0009042
:1045A0000098C069C0F3C00001B0704781B00090AE
:1045B0000098C069C0F3401001B0704781B000900E
:1045C0000098C069C0F3801001B0704781B00090BE
:1045D0000098C069C0B2C00901B0704781B00090B6
:1045E0000098006800F0010001B0704781B00090B1
:1045F00000980068C0F3801001B0704781B000904F
:1046000000980068C0B2C00901B0704781B0009046
:104610000098406AC0B201B07047000086B0DDF873
:1046200018C0059004910392029303980C2801D3BB
:10463000FFE741E0069808B9FFE73CE00298B0F5D3
:10464000004F23D1FFE704989DF80C2049F60C7128
:10465000C0F6000151F82210B0FBF1F040000699BD
:1046600000EB5100B0FBF1F080B2019001984FF6E1
:10467000F07108400090019800F00E01009840EAA7
:104680005100009000980599C86013E004989DF8C7
:104690000C2049F60C71C0F6000151F82210B0FB55
:1046A000F1F0069900EB5100B0FBF1F080B20599F2
:1046B000C860FFE7FFE7FFE706B0704782B00190F0
:1046C00000910198806820F4407000990843019996
:1046D000886002B07047000082B00190009101989C
:1046E000C06A20F00F00BDF8001008430199C862AD
:1046F00002B0704783B002900191FFE7FFE7029894
:1047000050E8020F20F06060019940EA416000909B
:10471000FFE70099029A42E802100028EFD1FFE774
:10472000FFE703B07047000082B00190009101984C
:10473000406820F44050009908430199486002B055
:104740007047000083B002900191FFE7FFE70298F5
:1047500050E8020F20F06040019940EA417000905B
:10476000FFE70099029A42E802100028EFD1FFE724
:10477000FFE703B07047000082B001908DF803108E
:104780009DF803000199886202B0704780B582B03D
:1047900048F20000C4F20000FEF706FD18B3FFE780
:1047A00048F20000C4F20000FEF71EFD8DF807007D
:1047B00040F25C00C2F20000806848B1FFE740F2BE
:1047C0005C00C2F2000081689DF80700884709E09C
:1047D00043F26C00C2F200000DF10701012200F06B
:1047E000B3F9FFE7FFE748F20000C4F20000FEF76C
:1047F000CBFC70B1FFE748F22400C4F2000000686F
:104800008DF8070048F20000C4F20000FEF7E2FB5A
:10481000FFE748F20000C4F200000090FEF7D2FB70
:104820000098FEF7DFFB0098FFF7E0FEE8B1FFE736
:1048300048F20000C4F20000FFF7C0FEA8B1FFE795
:1048400048F20000C4F20000FEF7D4FB40F25C0026
:10485000C2F20000406838B1FFE740F25C00C2F2EB
:10486000000040688047FFE7FFE702B080BD00001E
:1048700080B590B0002007900F900E900D900C9096
:104880000B900A9010200190FEF7C6F804200090CB
:10489000FEF7C2F820200290FEF7BEF80120069035
:1048A000FEF7BAF80220FEF7B7F808200590FEF7E9
:1048B000B3F8009941F20000C4F600000390FEF73F
:1048C00019FA03980599FEF715FA01990398FEF76E
:1048D00011FA02990398FEF70DFA40F60040C4F66B
:1048E000000009904FF480610491FEF703FA0699E5
:1048F0000998FEF7FFF905990998FEF7FBF9009B67
:104900000398069A07990A930B920C910D910E91B8
:104910000AA90891FEF780F9DDF814C0069B079AF2
:1049200008990398CDF828C00B930C920D920E9223
:10493000FEF772F9DDF804C0069B079A0899039800
:10494000CDF828C00B930C920D920E92FEF764F9ED
:10495000DDF808C0069B079A08990398CDF828C08F
:104960000B930C920D920E92FEF756F9DDF810C0E3
:10497000069B079A08990998CDF828C00B930C92CA
:104980000D920E92FEF748F9069B079A089909982E
:104990000A930B930C920D920E92FEF73DF9DDF8FF
:1049A00014C0069B079A08990998CDF828C00B9364
:1049B0000C920D920E92FEF72FF910B080BD000000
:1049C00080B549F67C71C0F60001682004F094F9C6
:1049D000FFE7FEE7FFE7FEE788B007900691059244
:1049E000079800F0070004900498C0F1070005281C
:1049F00003D3FFE70420019004E00498C0F107000E
:104A00000190FFE70198039004980430062803D82A
:104A1000FFE70020009003E0049803380090FFE7D0
:104A20000098029006980399012202FA01F10139D7
:104A30000840029B984005999A40013A114008436A
:104A400008B0704788B0079006910592079800F06B
:104A5000070004900498C0F10700052803D3FFE77E
:104A60000420019004E00498C0F107000190FFE7E2
:104A70000198039004980430062803D8FFE700202B
:104A8000009003E0049803380090FFE7009802903C
:104A900006980399012202FA01F101390840029BAC
:104AA000984005999A40013A1140084308B0704770
:104AB00088B0079006910592079800F007000490CF
:104AC0000498C0F10700052803D3FFE704200190F4
:104AD00004E00498C0F107000190FFE701980390FB
:104AE00004980430062803D8FFE70020009003E074
:104AF000049803380090FFE7009802900698039905
:104B0000012202FA01F101390840029B98400599FF
:104B10009A40013A1140084308B0704770470000BE
:104B200083B0029001910092009802990860019868
:104B30000299C860019802994860019802998860BA
:104B4000002003B07047000085B0049003910292EA
:104B50000020019000900499896801910090FFE77E
:104B600000980299884225D2FFE701980130019010
:104B70000499C968049A12681144884204D3FFE773
:104B80000498C0680190FFE7019804994968884239
:104B900001D1FFE70EE00398411C039100780499CE
:104BA00089680870019804998860FFE700980130CF
:104BB0000090D5E7009805B07047000085B00490DC
:104BC0000391029200200190FFE704984168049845
:104BD000826800209142009010D0FFE70199029A6C
:104BE00000209142009009D2FFE7019904980268E1
:104BF0000020914238BF01200090FFE70098C007D5
:104C0000D0B1FFE7049A5068411C516000780399C5
:104C1000019A531C01938854049840680499C96808
:104C2000049A12681144884205D3FFE70498C068CB
:104C300004994860FFE7C8E7019805B07047000095
:104C400080B582B0019001980090FEF7ABFB014661
:104C50000098C9B20A0949F6DC61C0F60001895C16
:104C600001F01F01C84002B080BD000080B582B0D5
:104C7000019001980090FEF79DFB014600980A0AFA
:104C800049F6EC61C0F60001895C01F01F01C840E3
:104C900002B080BD80B582B0019001980090FEF70F
:104CA00091FB01460098CA0A49F6EC61C0F6000182
:104CB000895C01F01F01C84002B080BD80B582B0A0
:104CC000FEF7E4FB01460091042808D0FFE70098B6
:104CD00008280AD0FFE700980C280CD00FE042F219
:104CE0000040C0F2F40001900FE041F20020C0F259
:104CF0007A00019009E000F00BF8019005E042F223
:104D00000040C0F2F4000190FFE7019802B080BDBE
:104D100080B586B0FEF7E6FD049004980390022863
:104D200004D0FFE70398032806D00BE042F20040CE
:104D3000C0F2F40005900BE041F20020C0F27A00CE
:104D4000059005E042F20040C0F2F4000590FFE754
:104D500005980090FEF7CEFD01460098484301906B
:104D6000FEF7B8FD02460198012101EB1211B0FBDC
:104D7000F1F00290FEF7C6FD014602984A0E0221AC
:104D800001EB4201B0FBF1F006B080BD70470000BE
:104D900080B540F2A800C2F2000040F2BC01C2F2AD
:104DA00000013C22102302F053FD80BD80B582B08B
:104DB000009000980138B0F1807F03D3FFE7012015
:104DC000019019E0009801384EF21401CEF2000172
:104DD00008604FF0FF300F2101F0DCF94EF21801AE
:104DE000CEF20001002008604EF21002CEF2000266
:104DF000072111600190FFE7019802B080BD00001B
:104E000080B5FDF72BFB80BD80B582B00420FDF797
:104E1000F5FEFFE7FDF7EAFE042801D0FFE7F9E71A
:104E2000FEF790FAFEF7A0FCFFE7FEF7A7FC0128CB
:104E300001D0FFE7F9E7FEF7A9FCFFE7FEF7B0FCBA
:104E4000012801D0FFE7F9E7FEF702FDFFE7FEF7D3
:104E500009FD012801D0FFE7F9E7FEF75FFA00201E
:104E6000FEF7DAFCFEF7ACFCFFE7FEF7BDFC01281D
:104E700001D0FFE7F9E70320102155220023FEF7B8
:104E8000F9FCFEF71DFDFEF711FDFFE7FEF742FD01
:104E9000012801D0FFE7F9E70320FEF785FD802018
:104EA000FEF74AFDFFE7FEF7E9FA0C2801D0FFE71D
:104EB000F9E74EF6FC51CEF20001086840F0807030
:104EC000086041F20001CEF20001086840F00100E4
:104ED000086041F20401CEF2000100200860FFE703
:104EE00041F20400CEF200000068632801D8FFE719
:104EF000F6E700200190FEF71FFD0198FEF72AFD5E
:104F00000198FEF735FD4FF68060C0F62120FFF7CF
:104F100055F80F20FDF7C8FA18B1FFE7FDF796FA2C
:104F2000FFE702B080BD00004EF68851CEF20001CE
:104F3000086840F4700008607047000080B542F6D1
:104F40000040C4F20100FFF769F9E0B1FFE743F662
:104F50004011C2F2000108680130086042F60040CA
:104F6000C4F20100FFF734F841F6A050C2F200008D
:104F7000006838B1FFE741F6A050C2F200000068B7
:104F80008047FFE7FFE780BD80B582B00020ADF825
:104F90000600ADF804004FF08040009000980069D2
:104FA00000F00200ADF806000098C06800F00200B2
:104FB000ADF80400BDF8060098B1FFE7BDF80400A5
:104FC00078B1FFE700984FF6FD7202610099C8685A
:104FD0001040C86043F67C00C2F2000000688047C1
:104FE000FFE70098006900F00400ADF806000098A3
:104FF000C06800F00400ADF80400BDF8060098B1E8
:10500000FFE7BDF8040078B1FFE700984FF6FB72A8
:1050100002610099C8681040C86043F68000C2F27F
:10502000000000688047FFE70098006900F0080072
:10503000ADF806000098C06800F00800ADF8040064
:10504000BDF8060098B1FFE7BDF8040078B1FFE7AE
:1050500000984FF6F77202610099C8681040C86066
:1050600043F68400C2F2000000688047FFE7009822
:10507000006900F01000ADF806000098C06800F06C
:105080001000ADF80400BDF8060098B1FFE7BDF8C8
:10509000040078B1FFE700984FF6EF7202610099C3
:1050A000C8681040C86043F68800C2F2000000687B
:1050B0008047FFE702B080BD80B582B044F6004073
:1050C000C4F20000FFF772FA18B3FFE744F600409D
:1050D000C4F20000FFF79AFA8DF8070040F23C0096
:1050E000C2F20000806848B1FFE740F23C00C2F223
:1050F000000081689DF80700884709E043F24C00F2
:10510000C2F200000DF107010122FFF71DFDFFE7CC
:10511000FFE744F60040C4F20000FFF73FFA70B129
:10512000FFE744F62440C4F2000000688DF8070051
:1051300044F60040C4F20000FFF7CEF8FFE744F663
:105140000040C4F200000090FFF7BEF80098FFF79F
:10515000CBF80098FFF74AFAE8B1FFE744F60040C1
:10516000C4F20000FFF72AFAA8B1FFE744F60040B6
:10517000C4F20000FFF7CEF840F23C00C2F200009B
:10518000406838B1FFE740F23C00C2F200004068DE
:105190008047FFE7FFE702B080BD000080B582B026
:1051A00045F20000C4F20000FFF700FA18B3FFE771
:1051B00045F20000C4F20000FFF728FA8DF807005E
:1051C00040F24C00C2F20000806848B1FFE740F2B4
:1051D0004C00C2F2000081689DF80700884709E092
:1051E00043F25C00C2F200000DF107010122FFF75B
:1051F000ABFCFFE7FFE745F20000C4F20000FFF759
:10520000CDF970B1FFE745F22400C4F20000006858
:105210008DF8070045F20000C4F20000FFF75CF8CB
:10522000FFE745F20000C4F200000090FFF74CF8E1
:105230000098FFF759F80098FFF7D8F9E8B1FFE7B1
:1052400045F20000C4F20000FFF7B8F9A8B1FFE78B
:1052500045F20000C4F20000FFF75CF840F24C0099
:10526000C2F20000406838B1FFE740F24C00C2F2E1
:10527000000040688047FFE7FFE702B080BD000004
:1052800080B584B043F60000C4F20100FFF78EF948
:1052900018B3FFE743F60000C4F20100FFF7B6F9C8
:1052A0008DF80F0040F20C00C2F20000806848B197
:1052B000FFE740F20C00C2F2000081689DF80F0089
:1052C000884709E042F6FC70C2F200000DF10F01C0
:1052D0000122FFF739FCFFE7FFE743F60000C4F2C5
:1052E0000100FFF75BF970B1FFE743F62400C4F259
:1052F000010000688DF80F0043F60000C4F20100C1
:10530000FEF7EAFFFFE743F60000C4F20100019058
:10531000FEF7DAFF0198FEF7E7FF019800218DF80C
:105320000E100291FFF76AF950B3FFE743F6000051
:10533000C4F20100FFF74AF910B3FFE743F20C0093
:10534000C2F200000DF10E010122FFF737FC0290BE
:10535000029848B1FFE79DF80E1043F60000C4F232
:105360000100FFF709FA0AE043F60000C4F2010069
:105370000090FEF7E5FF0098FFF74EF8FFE7FFE724
:1053800043F60000C4F20100FFF730F9A0B3FFE7D5
:1053900043F60000C4F20100FFF710F960B3FFE725
:1053A00043F20C00C2F200000DF10E010122FFF7E2
:1053B00005FC02900298A8B9FFE743F60000C4F28A
:1053C0000100FEF7A7FF40F20C00C2F200004068A7
:1053D00038B1FFE740F20C00C2F20000406880479D
:1053E000FFE708E09DF80E1043F60000C4F201004C
:1053F000FFF7C2F9FFE7FFE704B080BD80B584B0D6
:1054000044F20040C4F20000FFF7D0F818B3FFE701
:1054100044F20040C4F20000FFF7F8F88DF80F00E6
:1054200040F21C00C2F20000806848B1FFE740F281
:105430001C00C2F2000081689DF80F00884709E057
:1054400043F21C00C2F200000DF10F010122FFF730
:105450007BFBFFE7FFE744F20040C4F20000FFF7E8
:105460009DF870B1FFE744F22440C4F200000068E8
:105470008DF80F0044F20040C4F20000FEF72CFF4C
:10548000FFE744F20040C4F200000190FEF71CFF69
:105490000198FEF729FF019800218DF80E10029166
:1054A000FFF7ACF850B3FFE744F20040C4F200004D
:1054B000FFF78CF810B3FFE743F22C00C2F20000B4
:1054C0000DF10E010122FFF779FB0290029848B11D
:1054D000FFE79DF80E1044F20040C4F20000FFF711
:1054E0004BF90AE044F20040C4F200000090FEF7DD
:1054F00027FF0098FEF790FFFFE7FFE744F2004028
:10550000C4F20000FFF772F8A0B3FFE744F20040D6
:10551000C4F20000FFF752F860B3FFE743F22C003B
:10552000C2F200000DF10E010122FFF747FB0290CD
:105530000298A8B9FFE744F20040C4F20000FEF769
:10554000E9FE40F21C00C2F20000406838B1FFE7FB
:1055500040F21C00C2F2000040688047FFE708E00C
:105560009DF80E1044F20040C4F20000FFF704F969
:10557000FFE7FFE704B080BD80B582B044F60000CD
:10558000C4F20000FFF712F818B3FFE744F600007A
:10559000C4F20000FFF73AF88DF8070040F22C0043
:1055A000C2F20000806848B1FFE740F22C00C2F26E
:1055B000000081689DF80700884709E043F23C003D
:1055C000C2F200000DF107010122FFF7BDFAFFE76B
:1055D000FFE744F60000C4F20000FEF7DFFF70B101
:1055E000FFE744F62400C4F2000000688DF80700CD
:1055F00044F60000C4F20000FEF76EFEFFE744F63A
:105600000000C4F200000090FEF75EFE0098FEF776
:105610006BFE0098FEF7EAFFE8B1FFE744F60000F2
:10562000C4F20000FEF7CAFFA8B1FFE744F600008D
:10563000C4F20000FEF76EFE40F22C00C2F2000041
:10564000406838B1FFE740F22C00C2F20000406829
:105650008047FFE7FFE702B080BD000010B5F0B063
:10566000DDF8C8C18DF8BF016E916D926C9300207A
:1056700025906B906A9069906890679066906590AD
:10568000649063906290619060905F905E909DF8EE
:10569000BF01013801462691052800F2358326997D
:1056A000DFE811F00600830003017F01FB01930294
:1056B00042F6FC70C2F2000041F6A451C2F20001B1
:1056C000C822FFF72DFA43F20C00C2F2000041F6A7
:1056D0006C61C2F200014FF48062FFF721FA4FF4CF
:1056E0004030FEF77FF94FF48040FDF741FA01208A
:1056F0002490FDF7A3F94FF4C060669002206790F4
:10570000032068900020219069906A9007206B9098
:105710004FF0904066A9FDF77FFA00F02BFD219A2B
:105720000621FFF78FF901462520209000F054FD57
:10573000209800F0E7FC21986E995F916D99609137
:105740006C996191729962910C216391649065905A
:1057500043F60000C4F2010023905EA9FEF788FE24
:10576000239805212291FEF7EDFF22992398FEF759
:10577000C1FF2398FEF71AFE2398FEF7BDFD23987C
:10578000FEF70AFE2398FEF731FE2398FEF718FE77
:105790002398FEF7BFFD2398FEF7E8FD249840F21A
:1057A0000C01C2F200010873AFE243F21C00C2F226
:1057B000000042F26C21C2F200014FF480621992A3
:1057C000FFF7AEF9199A43F22C00C2F2000042F240
:1057D0006C61C2F20001FFF7A3F94FF44020FEF71D
:1057E00001F94FF40030FDF77DF901201F90FDF71E
:1057F00025F902201A90FDF721F90820FDF71EF97E
:105800001A986021669167900320689000201C9090
:1058100069906A9007206B9040F60040C4F6000043
:1058200066A9FDF7F9F900F0A5FC1C9A0421FFF721
:1058300009F9014626201B9000F0CEFC1B9800F0D1
:1058400061FC1C986E995F916D9960916C99619162
:10585000729962910C2163916490659044F20040CA
:10586000C4F200001E905EA9FEF702FE1E980521FC
:105870001D91FEF767FF1D991E98FEF73BFF1E98CE
:10588000FEF794FD1E98FEF737FD1E98FEF784FD87
:105890001E98FEF7ABFD1E98FEF792FD1F9840F292
:1058A0001C01C2F2000108732FE243F23C00C2F275
:1058B000000042F66C21C2F200016422FFF730F9C9
:1058C000002016905D905C905B905A905990589093
:1058D00057905690559054905390529051905090AC
:1058E0004FF44010FEF77EF84FF48020FDF7FAF8F1
:1058F0000420FDF7A3F816984FF44071509102214F
:105900005191032114915291539054900720559036
:1059100040F60040C4F6000050A9FDF77DF900F004
:1059200029FC1499169AFFF78DF801462720159047
:1059300000F052FC159800F0E5FB16986E9957910F
:105940006D9958916C99599172995A910C215B916A
:105950005C905D9044F60000C4F20000189056A9D7
:10596000FEF786FD189805211791FEF7EBFE1799B3
:105970001898FEF7BFFE1898FEF718FD1898FEF766
:10598000BBFC1898FEF708FD1898FEF72FFD189835
:10599000FEF716FD40F22C01C2F20001012008734F
:1059A000B3E143F24C00C2F2000042F6D021C2F251
:1059B00000016422FFF7B4F8002011904F904E9040
:1059C0004D904C904B904A9049904890479046900B
:1059D00045904490439042904FF44000FDF7F2FF11
:1059E0004FF40020FDF77EF80420FDF727F811980A
:1059F0004FF4406142910221439103210F91449160
:105A00004590469005201290479040F60000C4F65D
:105A1000000042A9FDF700F900F0ACFB0F99119AC4
:105A2000FFF710F801463420109000F0D5FB1098D5
:105A300000F068FB11986E9949916D994A916C99A3
:105A40004B9172994C910C214D914E904F9044F690
:105A50000040C4F20000139048A9FEF709FD129916
:105A60001398FEF76FFE12991398FEF743FE1398F2
:105A7000FEF79CFC1398FEF73FFC1398FEF78CFC96
:105A80001398FEF7B3FC1398FEF79AFC40F23C0122
:105A9000C2F200010120087337E143F25C00C2F258
:105AA000000042F63431C2F20001C822FFF738F894
:105AB00000200C90419040903F903E903D903C9053
:105AC0003B903A903990389037903690359034909A
:105AD0004FF04070FDF776FF4FF48010FDF702F8AD
